{
    "_format": "hh-sol-artifact-1",
    "contractName": "ParcelFactory",
    "sourceName": "contracts/ParcelFactory.sol",
    "abi": [
        {
            "inputs": [],
            "stateMutability": "nonpayable",
            "type": "constructor"
        },
        {
            "anonymous": false,
            "inputs": [
                {
                    "indexed": true,
                    "internalType": "address",
                    "name": "previousOwner",
                    "type": "address"
                },
                {
                    "indexed": true,
                    "internalType": "address",
                    "name": "newOwner",
                    "type": "address"
                }
            ],
            "name": "OwnershipTransferred",
            "type": "event"
        },
        {
            "anonymous": false,
            "inputs": [
                {
                    "indexed": false,
                    "internalType": "address",
                    "name": "parcel",
                    "type": "address"
                },
                {
                    "indexed": false,
                    "internalType": "address",
                    "name": "sender",
                    "type": "address"
                }
            ],
            "name": "ParcelCreated",
            "type": "event"
        },
        {
            "anonymous": false,
            "inputs": [
                {
                    "indexed": false,
                    "internalType": "address",
                    "name": "account",
                    "type": "address"
                }
            ],
            "name": "Paused",
            "type": "event"
        },
        {
            "anonymous": false,
            "inputs": [
                {
                    "indexed": false,
                    "internalType": "address",
                    "name": "account",
                    "type": "address"
                }
            ],
            "name": "Unpaused",
            "type": "event"
        },
        {
            "inputs": [
                {
                    "internalType": "bytes32",
                    "name": "hashedSecret",
                    "type": "bytes32"
                }
            ],
            "name": "createParcel",
            "outputs": [
                {
                    "internalType": "address payable",
                    "name": "",
                    "type": "address"
                }
            ],
            "stateMutability": "nonpayable",
            "type": "function"
        },
        {
            "inputs": [],
            "name": "owner",
            "outputs": [
                {
                    "internalType": "address",
                    "name": "",
                    "type": "address"
                }
            ],
            "stateMutability": "view",
            "type": "function"
        },
        {
            "inputs": [],
            "name": "pause",
            "outputs": [],
            "stateMutability": "nonpayable",
            "type": "function"
        },
        {
            "inputs": [],
            "name": "paused",
            "outputs": [
                {
                    "internalType": "bool",
                    "name": "",
                    "type": "bool"
                }
            ],
            "stateMutability": "view",
            "type": "function"
        },
        {
            "inputs": [],
            "name": "renounceOwnership",
            "outputs": [],
            "stateMutability": "nonpayable",
            "type": "function"
        },
        {
            "inputs": [
                {
                    "internalType": "address",
                    "name": "newOwner",
                    "type": "address"
                }
            ],
            "name": "transferOwnership",
            "outputs": [],
            "stateMutability": "nonpayable",
            "type": "function"
        },
        {
            "inputs": [],
            "name": "unpause",
            "outputs": [],
            "stateMutability": "nonpayable",
            "type": "function"
        }
    ],
    "bytecode": "0x60a060405234801561001057600080fd5b5061002d6100226100ab60201b60201c565b6100b360201b60201c565b60008060146101000a81548160ff02191690831515021790555060405161005390610177565b604051809103906000f08015801561006f573d6000803e3d6000fd5b5073ffffffffffffffffffffffffffffffffffffffff1660808173ffffffffffffffffffffffffffffffffffffffff1660601b81525050610184565b600033905090565b60008060009054906101000a900473ffffffffffffffffffffffffffffffffffffffff169050816000806101000a81548173ffffffffffffffffffffffffffffffffffffffff021916908373ffffffffffffffffffffffffffffffffffffffff1602179055508173ffffffffffffffffffffffffffffffffffffffff168173ffffffffffffffffffffffffffffffffffffffff167f8be0079c531659141344cd1fd0a4f28419497f9722a3daafe3b4186f6b6457e060405160405180910390a35050565b61236680610e5183390190565b60805160601c610caf6101a2600039600061034c0152610caf6000f3fe608060405234801561001057600080fd5b506004361061007d5760003560e01c80638456cb591161005b5780638456cb59146100b45780638da5cb5b146100be578063ea5b1fbf146100dc578063f2fde38b1461010c5761007d565b80633f4ba83a146100825780635c975abb1461008c578063715018a6146100aa575b600080fd5b61008a610128565b005b6100946101ae565b6040516100a191906109d3565b60405180910390f35b6100b26101c4565b005b6100bc61024c565b005b6100c66102d2565b6040516100d39190610974565b60405180910390f35b6100f660048036038101906100f19190610851565b6102fb565b604051610103919061098f565b60405180910390f35b61012660048036038101906101219190610828565b610421565b005b610130610519565b73ffffffffffffffffffffffffffffffffffffffff1661014e6102d2565b73ffffffffffffffffffffffffffffffffffffffff16146101a4576040517f08c379a000000000000000000000000000000000000000000000000000000000815260040161019b90610a97565b60405180910390fd5b6101ac610521565b565b60008060149054906101000a900460ff16905090565b6101cc610519565b73ffffffffffffffffffffffffffffffffffffffff166101ea6102d2565b73ffffffffffffffffffffffffffffffffffffffff1614610240576040517f08c379a000000000000000000000000000000000000000000000000000000000815260040161023790610a97565b60405180910390fd5b61024a60006105c2565b565b610254610519565b73ffffffffffffffffffffffffffffffffffffffff166102726102d2565b73ffffffffffffffffffffffffffffffffffffffff16146102c8576040517f08c379a00000000000000000000000000000000000000000000000000000000081526004016102bf90610a97565b60405180910390fd5b6102d0610686565b565b60008060009054906101000a900473ffffffffffffffffffffffffffffffffffffffff16905090565b60006103056101ae565b15610345576040517f08c379a000000000000000000000000000000000000000000000000000000000815260040161033c90610a57565b60405180910390fd5b60006103707f0000000000000000000000000000000000000000000000000000000000000000610729565b90508073ffffffffffffffffffffffffffffffffffffffff16636910e33484336040518363ffffffff1660e01b81526004016103ad9291906109ee565b600060405180830381600087803b1580156103c757600080fd5b505af11580156103db573d6000803e3d6000fd5b505050507f3fd06cef75c9c6750f6674fd2db510c19be172999dc51b6b1865dfbb8985225481336040516104109291906109aa565b60405180910390a180915050919050565b610429610519565b73ffffffffffffffffffffffffffffffffffffffff166104476102d2565b73ffffffffffffffffffffffffffffffffffffffff161461049d576040517f08c379a000000000000000000000000000000000000000000000000000000000815260040161049490610a97565b60405180910390fd5b600073ffffffffffffffffffffffffffffffffffffffff168173ffffffffffffffffffffffffffffffffffffffff16141561050d576040517f08c379a000000000000000000000000000000000000000000000000000000000815260040161050490610a37565b60405180910390fd5b610516816105c2565b50565b600033905090565b6105296101ae565b610568576040517f08c379a000000000000000000000000000000000000000000000000000000000815260040161055f90610a17565b60405180910390fd5b60008060146101000a81548160ff0219169083151502179055507f5db9ee0a495bf2e6ff9c91a7834c1ba4fdd244a5e8aa4e537bd38aeae4b073aa6105ab610519565b6040516105b89190610974565b60405180910390a1565b60008060009054906101000a900473ffffffffffffffffffffffffffffffffffffffff169050816000806101000a81548173ffffffffffffffffffffffffffffffffffffffff021916908373ffffffffffffffffffffffffffffffffffffffff1602179055508173ffffffffffffffffffffffffffffffffffffffff168173ffffffffffffffffffffffffffffffffffffffff167f8be0079c531659141344cd1fd0a4f28419497f9722a3daafe3b4186f6b6457e060405160405180910390a35050565b61068e6101ae565b156106ce576040517f08c379a00000000000000000000000000000000000000000000000000000000081526004016106c590610a57565b60405180910390fd5b6001600060146101000a81548160ff0219169083151502179055507f62e78cea01bee320cd4e420270b5ea74000d11b0c9f74754ebdbfc544b05a258610712610519565b60405161071f9190610974565b60405180910390a1565b60006040517f3d602d80600a3d3981f3363d3d373d3d3d363d7300000000000000000000000081528260601b60148201527f5af43d82803e903d91602b57fd5bf3000000000000000000000000000000000060288201526037816000f0915050600073ffffffffffffffffffffffffffffffffffffffff168173ffffffffffffffffffffffffffffffffffffffff1614156107f9576040517f08c379a00000000000000000000000000000000000000000000000000000000081526004016107f090610a77565b60405180910390fd5b919050565b60008135905061080d81610c4b565b92915050565b60008135905061082281610c62565b92915050565b60006020828403121561083a57600080fd5b6000610848848285016107fe565b91505092915050565b60006020828403121561086357600080fd5b600061087184828501610813565b91505092915050565b61088381610b22565b82525050565b61089281610ada565b82525050565b6108a181610ac8565b82525050565b6108b081610aec565b82525050565b6108bf81610af8565b82525050565b60006108d2601483610ab7565b91506108dd82610b58565b602082019050919050565b60006108f5602683610ab7565b915061090082610b81565b604082019050919050565b6000610918601083610ab7565b915061092382610bd0565b602082019050919050565b600061093b601683610ab7565b915061094682610bf9565b602082019050919050565b600061095e602083610ab7565b915061096982610c22565b602082019050919050565b60006020820190506109896000830184610898565b92915050565b60006020820190506109a46000830184610889565b92915050565b60006040820190506109bf600083018561087a565b6109cc6020830184610898565b9392505050565b60006020820190506109e860008301846108a7565b92915050565b6000604082019050610a0360008301856108b6565b610a106020830184610898565b9392505050565b60006020820190508181036000830152610a30816108c5565b9050919050565b60006020820190508181036000830152610a50816108e8565b9050919050565b60006020820190508181036000830152610a708161090b565b9050919050565b60006020820190508181036000830152610a908161092e565b9050919050565b60006020820190508181036000830152610ab081610951565b9050919050565b600082825260208201905092915050565b6000610ad382610b02565b9050919050565b6000610ae582610b02565b9050919050565b60008115159050919050565b6000819050919050565b600073ffffffffffffffffffffffffffffffffffffffff82169050919050565b6000610b2d82610b34565b9050919050565b6000610b3f82610b46565b9050919050565b6000610b5182610b02565b9050919050565b7f5061757361626c653a206e6f7420706175736564000000000000000000000000600082015250565b7f4f776e61626c653a206e6577206f776e657220697320746865207a65726f206160008201527f6464726573730000000000000000000000000000000000000000000000000000602082015250565b7f5061757361626c653a2070617573656400000000000000000000000000000000600082015250565b7f455243313136373a20637265617465206661696c656400000000000000000000600082015250565b7f4f776e61626c653a2063616c6c6572206973206e6f7420746865206f776e6572600082015250565b610c5481610ac8565b8114610c5f57600080fd5b50565b610c6b81610af8565b8114610c7657600080fd5b5056fea2646970667358221220fb090e3e538a0eea558cfcecc4b707063c08714d0f0c3161ea3e1c0afafb233964736f6c63430008040033608060405234801561001057600080fd5b50612346806100206000396000f3fe6080604052600436106100e15760003560e01c80636039fbdb1161007f5780637e10a5ac116100595780637e10a5ac146105d3578063c19d93fb146105ea578063e42c08f214610615578063f83d08ba1461065257610277565b80636039fbdb1461055657806367e404ce1461057f5780636910e334146105aa57610277565b8063265aa621116100bb578063265aa62114610499578063382f431b146104d7578063433f0f18146105005780634e6630b01461052b57610277565b8063150b7a02146104085780631bb49e24146104455780632524f9a31461047057610277565b366102775760006002811115610120577f4e487b7100000000000000000000000000000000000000000000000000000000600052602160045260246000fd5b600060029054906101000a900460ff166002811115610168577f4e487b7100000000000000000000000000000000000000000000000000000000600052602160045260246000fd5b146101a8576040517f08c379a000000000000000000000000000000000000000000000000000000000815260040161019f90611d04565b60405180910390fd5b600060039054906101000a900460ff161580156102135750600060049054906101000a900473ffffffffffffffffffffffffffffffffffffffff1673ffffffffffffffffffffffffffffffffffffffff163373ffffffffffffffffffffffffffffffffffffffff1614155b1561025c5761022133610669565b6040517f08c379a000000000000000000000000000000000000000000000000000000000815260040161025390611c44565b60405180910390fd5b346001600082825461026e9190611df1565b92505081905550005b600060028111156102b1577f4e487b7100000000000000000000000000000000000000000000000000000000600052602160045260246000fd5b600060029054906101000a900460ff1660028111156102f9577f4e487b7100000000000000000000000000000000000000000000000000000000600052602160045260246000fd5b14610339576040517f08c379a000000000000000000000000000000000000000000000000000000000815260040161033090611d04565b60405180910390fd5b600060039054906101000a900460ff161580156103a45750600060049054906101000a900473ffffffffffffffffffffffffffffffffffffffff1673ffffffffffffffffffffffffffffffffffffffff163373ffffffffffffffffffffffffffffffffffffffff1614155b156103ed576103b233610669565b6040517f08c379a00000000000000000000000000000000000000000000000000000000081526004016103e490611c44565b60405180910390fd5b34600160008282546103ff9190611df1565b92505081905550005b34801561041457600080fd5b5061042f600480360381019061042a9190611786565b610702565b60405161043c9190611bee565b60405180910390f35b34801561045157600080fd5b5061045a610863565b6040516104679190611d64565b60405180910390f35b34801561047c57600080fd5b5061049760048036038101906104929190611866565b610870565b005b3480156104a557600080fd5b506104c060048036038101906104bb9190611910565b61090a565b6040516104ce929190611baa565b60405180910390f35b3480156104e357600080fd5b506104fe60048036038101906104f991906118cb565b61095e565b005b34801561050c57600080fd5b50610515610e59565b6040516105229190611bd3565b60405180910390f35b34801561053757600080fd5b50610540610e6c565b60405161054d9190611d64565b60405180910390f35b34801561056257600080fd5b5061057d60048036038101906105789190611801565b610e72565b005b34801561058b57600080fd5b506105946111c8565b6040516105a19190611b58565b60405180910390f35b3480156105b657600080fd5b506105d160048036038101906105cc919061188f565b6111ee565b005b3480156105df57600080fd5b506105e861131c565b005b3480156105f657600080fd5b506105ff6113c9565b60405161060c9190611c09565b60405180910390f35b34801561062157600080fd5b5061063c6004803603810190610637919061175d565b6113dc565b6040516106499190611d64565b60405180910390f35b34801561065e57600080fd5b506106676113f4565b005b6106ff8160405160240161067d9190611b58565b6040516020818303038152906040527f2c2ecbc2000000000000000000000000000000000000000000000000000000007bffffffffffffffffffffffffffffffffffffffffffffffffffffffff19166020820180517bffffffffffffffffffffffffffffffffffffffffffffffffffffffff83818316178352505050506114d7565b50565b60008060039054906101000a900460ff166107a857600060049054906101000a900473ffffffffffffffffffffffffffffffffffffffff1673ffffffffffffffffffffffffffffffffffffffff168473ffffffffffffffffffffffffffffffffffffffff16146107a7576040517f08c379a000000000000000000000000000000000000000000000000000000000815260040161079e90611ce4565b60405180910390fd5b5b600460405180604001604052803373ffffffffffffffffffffffffffffffffffffffff16815260200185815250908060018154018082558091505060019003906000526020600020906002020160009091909190915060008201518160000160006101000a81548173ffffffffffffffffffffffffffffffffffffffff021916908373ffffffffffffffffffffffffffffffffffffffff16021790555060208201518160010155505063150b7a0260e01b9050949350505050565b6000600480549050905090565b600060049054906101000a900473ffffffffffffffffffffffffffffffffffffffff1673ffffffffffffffffffffffffffffffffffffffff163373ffffffffffffffffffffffffffffffffffffffff1614610900576040517f08c379a00000000000000000000000000000000000000000000000000000000081526004016108f790611d44565b60405180910390fd5b8060058190555050565b6004818154811061091a57600080fd5b90600052602060002090600202016000915090508060000160009054906101000a900473ffffffffffffffffffffffffffffffffffffffff16908060010154905082565b60016002811115610998577f4e487b7100000000000000000000000000000000000000000000000000000000600052602160045260246000fd5b600060029054906101000a900460ff1660028111156109e0577f4e487b7100000000000000000000000000000000000000000000000000000000600052602160045260246000fd5b14610a20576040517f08c379a0000000000000000000000000000000000000000000000000000000008152600401610a1790611c64565b60405180910390fd5b8181604051610a30929190611b2a565b604051809103902060055414610a7b576040517f08c379a0000000000000000000000000000000000000000000000000000000008152600401610a7290611d24565b60405180910390fd5b6002600060026101000a81548160ff02191690836002811115610ac7577f4e487b7100000000000000000000000000000000000000000000000000000000600052602160045260246000fd5b021790555060006001541115610b955760006001549050600060018190555060003373ffffffffffffffffffffffffffffffffffffffff1682604051610b0c90611b43565b60006040518083038185875af1925050503d8060008114610b49576040519150601f19603f3d011682016040523d82523d6000602084013e610b4e565b606091505b5050905080610b92576040517f08c379a0000000000000000000000000000000000000000000000000000000008152600401610b8990611cc4565b60405180910390fd5b50505b60006003805490501115610c825760005b600380549050811015610c8057600060038281548110610bef577f4e487b7100000000000000000000000000000000000000000000000000000000600052603260045260246000fd5b9060005260206000200160009054906101000a900473ffffffffffffffffffffffffffffffffffffffff1690506000600260008373ffffffffffffffffffffffffffffffffffffffff1673ffffffffffffffffffffffffffffffffffffffff168152602001908152602001600020549050610c6b823383611500565b50508080610c7890611f5e565b915050610ba6565b505b60005b600480549050811015610e5457600060048281548110610cce577f4e487b7100000000000000000000000000000000000000000000000000000000600052603260045260246000fd5b90600052602060002090600202016040518060400160405290816000820160009054906101000a900473ffffffffffffffffffffffffffffffffffffffff1673ffffffffffffffffffffffffffffffffffffffff1673ffffffffffffffffffffffffffffffffffffffff168152602001600182015481525050905060008160000151905060048381548110610d8c577f4e487b7100000000000000000000000000000000000000000000000000000000600052603260045260246000fd5b9060005260206000209060020201600080820160006101000a81549073ffffffffffffffffffffffffffffffffffffffff0219169055600182016000905550508073ffffffffffffffffffffffffffffffffffffffff166342842e0e303385602001516040518463ffffffff1660e01b8152600401610e0d93929190611b73565b600060405180830381600087803b158015610e2757600080fd5b505af1158015610e3b573d6000803e3d6000fd5b5050505050508080610e4c90611f5e565b915050610c85565b505050565b600060039054906101000a900460ff1681565b60015481565b60006002811115610eac577f4e487b7100000000000000000000000000000000000000000000000000000000600052602160045260246000fd5b600060029054906101000a900460ff166002811115610ef4577f4e487b7100000000000000000000000000000000000000000000000000000000600052602160045260246000fd5b14610f34576040517f08c379a0000000000000000000000000000000000000000000000000000000008152600401610f2b90611d04565b60405180910390fd5b600060039054906101000a900460ff16158015610f9f5750600060049054906101000a900473ffffffffffffffffffffffffffffffffffffffff1673ffffffffffffffffffffffffffffffffffffffff163373ffffffffffffffffffffffffffffffffffffffff1614155b15610fe857610fad33610669565b6040517f08c379a0000000000000000000000000000000000000000000000000000000008152600401610fdf90611c44565b60405180910390fd5b600082905060008173ffffffffffffffffffffffffffffffffffffffff166323b872dd3330866040518463ffffffff1660e01b815260040161102c93929190611b73565b602060405180830381600087803b15801561104657600080fd5b505af115801561105a573d6000803e3d6000fd5b505050506040513d601f19601f8201168201806040525081019061107e919061183d565b9050806110c0576040517f08c379a00000000000000000000000000000000000000000000000000000000081526004016110b790611c24565b60405180910390fd5b6000600260008673ffffffffffffffffffffffffffffffffffffffff1673ffffffffffffffffffffffffffffffffffffffff16815260200190815260200160002054141561116c576003849080600181540180825580915050600190039060005260206000200160009091909190916101000a81548173ffffffffffffffffffffffffffffffffffffffff021916908373ffffffffffffffffffffffffffffffffffffffff1602179055505b82600260008673ffffffffffffffffffffffffffffffffffffffff1673ffffffffffffffffffffffffffffffffffffffff16815260200190815260200160002060008282546111bb9190611df1565b9250508190555050505050565b600060049054906101000a900473ffffffffffffffffffffffffffffffffffffffff1681565b600060019054906101000a900460ff166112165760008054906101000a900460ff161561121f565b61121e611633565b5b61125e576040517f08c379a000000000000000000000000000000000000000000000000000000000815260040161125590611ca4565b60405180910390fd5b60008060019054906101000a900460ff1615905080156112ae576001600060016101000a81548160ff02191690831515021790555060016000806101000a81548160ff0219169083151502179055505b81600060046101000a81548173ffffffffffffffffffffffffffffffffffffffff021916908373ffffffffffffffffffffffffffffffffffffffff1602179055508260058190555080156113175760008060016101000a81548160ff0219169083151502179055505b505050565b600060049054906101000a900473ffffffffffffffffffffffffffffffffffffffff1673ffffffffffffffffffffffffffffffffffffffff163373ffffffffffffffffffffffffffffffffffffffff16146113ac576040517f08c379a00000000000000000000000000000000000000000000000000000000081526004016113a390611d44565b60405180910390fd5b6001600060036101000a81548160ff021916908315150217905550565b600060029054906101000a900460ff1681565b60026020528060005260406000206000915090505481565b600060049054906101000a900473ffffffffffffffffffffffffffffffffffffffff1673ffffffffffffffffffffffffffffffffffffffff163373ffffffffffffffffffffffffffffffffffffffff1614611484576040517f08c379a000000000000000000000000000000000000000000000000000000000815260040161147b90611d44565b60405180910390fd5b6001600060026101000a81548160ff021916908360028111156114d0577f4e487b7100000000000000000000000000000000000000000000000000000000600052602160045260246000fd5b0217905550565b60008151905060006a636f6e736f6c652e6c6f679050602083016000808483855afa5050505050565b80600260008573ffffffffffffffffffffffffffffffffffffffff1673ffffffffffffffffffffffffffffffffffffffff168152602001908152602001600020600082825461154f9190611e47565b92505081905550600083905060008173ffffffffffffffffffffffffffffffffffffffff1663a9059cbb85856040518363ffffffff1660e01b8152600401611598929190611baa565b602060405180830381600087803b1580156115b257600080fd5b505af11580156115c6573d6000803e3d6000fd5b505050506040513d601f19601f820116820180604052508101906115ea919061183d565b90508061162c576040517f08c379a000000000000000000000000000000000000000000000000000000000815260040161162390611c84565b60405180910390fd5b5050505050565b600061163e30611644565b15905090565b600080823b905060008111915050919050565b600061166a61166584611da4565b611d7f565b90508281526020810184848401111561168257600080fd5b61168d848285611f1e565b509392505050565b6000813590506116a4816122b4565b92915050565b6000815190506116b9816122cb565b92915050565b6000813590506116ce816122e2565b92915050565b60008083601f8401126116e657600080fd5b8235905067ffffffffffffffff8111156116ff57600080fd5b60208301915083600182028301111561171757600080fd5b9250929050565b600082601f83011261172f57600080fd5b813561173f848260208601611657565b91505092915050565b600081359050611757816122f9565b92915050565b60006020828403121561176f57600080fd5b600061177d84828501611695565b91505092915050565b6000806000806080858703121561179c57600080fd5b60006117aa87828801611695565b94505060206117bb87828801611695565b93505060406117cc87828801611748565b925050606085013567ffffffffffffffff8111156117e957600080fd5b6117f58782880161171e565b91505092959194509250565b6000806040838503121561181457600080fd5b600061182285828601611695565b925050602061183385828601611748565b9150509250929050565b60006020828403121561184f57600080fd5b600061185d848285016116aa565b91505092915050565b60006020828403121561187857600080fd5b6000611886848285016116bf565b91505092915050565b600080604083850312156118a257600080fd5b60006118b0858286016116bf565b92505060206118c185828601611695565b9150509250929050565b600080602083850312156118de57600080fd5b600083013567ffffffffffffffff8111156118f857600080fd5b611904858286016116d4565b92509250509250929050565b60006020828403121561192257600080fd5b600061193084828501611748565b91505092915050565b61194281611e7b565b82525050565b61195181611e8d565b82525050565b61196081611ea3565b82525050565b60006119728385611dd5565b935061197f838584611f1e565b82840190509392505050565b61199481611f0c565b82525050565b60006119a7602483611de0565b91506119b282612045565b604082019050919050565b60006119ca603483611de0565b91506119d582612094565b604082019050919050565b60006119ed600e83611de0565b91506119f8826120e3565b602082019050919050565b6000611a10601283611de0565b9150611a1b8261210c565b602082019050919050565b6000611a33602e83611de0565b9150611a3e82612135565b604082019050919050565b6000611a56601483611de0565b9150611a6182612184565b602082019050919050565b6000611a79602283611de0565b9150611a84826121ad565b604082019050919050565b6000611a9c601c83611de0565b9150611aa7826121fc565b602082019050919050565b6000611abf600083611dd5565b9150611aca82612225565b600082019050919050565b6000611ae2601183611de0565b9150611aed82612228565b602082019050919050565b6000611b05602583611de0565b9150611b1082612251565b604082019050919050565b611b2481611f02565b82525050565b6000611b37828486611966565b91508190509392505050565b6000611b4e82611ab2565b9150819050919050565b6000602082019050611b6d6000830184611939565b92915050565b6000606082019050611b886000830186611939565b611b956020830185611939565b611ba26040830184611b1b565b949350505050565b6000604082019050611bbf6000830185611939565b611bcc6020830184611b1b565b9392505050565b6000602082019050611be86000830184611948565b92915050565b6000602082019050611c036000830184611957565b92915050565b6000602082019050611c1e600083018461198b565b92915050565b60006020820190508181036000830152611c3d8161199a565b9050919050565b60006020820190508181036000830152611c5d816119bd565b9050919050565b60006020820190508181036000830152611c7d816119e0565b9050919050565b60006020820190508181036000830152611c9d81611a03565b9050919050565b60006020820190508181036000830152611cbd81611a26565b9050919050565b60006020820190508181036000830152611cdd81611a49565b9050919050565b60006020820190508181036000830152611cfd81611a6c565b9050919050565b60006020820190508181036000830152611d1d81611a8f565b9050919050565b60006020820190508181036000830152611d3d81611ad5565b9050919050565b60006020820190508181036000830152611d5d81611af8565b9050919050565b6000602082019050611d796000830184611b1b565b92915050565b6000611d89611d9a565b9050611d958282611f2d565b919050565b6000604051905090565b600067ffffffffffffffff821115611dbf57611dbe612005565b5b611dc882612034565b9050602081019050919050565b600081905092915050565b600082825260208201905092915050565b6000611dfc82611f02565b9150611e0783611f02565b9250827fffffffffffffffffffffffffffffffffffffffffffffffffffffffffffffffff03821115611e3c57611e3b611fa7565b5b828201905092915050565b6000611e5282611f02565b9150611e5d83611f02565b925082821015611e7057611e6f611fa7565b5b828203905092915050565b6000611e8682611ee2565b9050919050565b60008115159050919050565b6000819050919050565b60007fffffffff0000000000000000000000000000000000000000000000000000000082169050919050565b6000819050611edd826122a0565b919050565b600073ffffffffffffffffffffffffffffffffffffffff82169050919050565b6000819050919050565b6000611f1782611ecf565b9050919050565b82818337600083830152505050565b611f3682612034565b810181811067ffffffffffffffff82111715611f5557611f54612005565b5b80604052505050565b6000611f6982611f02565b91507fffffffffffffffffffffffffffffffffffffffffffffffffffffffffffffffff821415611f9c57611f9b611fa7565b5b600182019050919050565b7f4e487b7100000000000000000000000000000000000000000000000000000000600052601160045260246000fd5b7f4e487b7100000000000000000000000000000000000000000000000000000000600052602160045260246000fd5b7f4e487b7100000000000000000000000000000000000000000000000000000000600052604160045260246000fd5b6000601f19601f8301169050919050565b7f546f6b656e73206661696c656420746f207472616e7366657220746f2070617260008201527f63656c2e00000000000000000000000000000000000000000000000000000000602082015250565b7f50617263656c206973206e6f7420636f6d6d756e616c20616e642063616e6e6f60008201527f742061636365707420796f75722061737365742e000000000000000000000000602082015250565b7f496e76616c69642073746174652e000000000000000000000000000000000000600082015250565b7f4661696c656420746f207472616e736665720000000000000000000000000000600082015250565b7f496e697469616c697a61626c653a20636f6e747261637420697320616c72656160008201527f647920696e697469616c697a6564000000000000000000000000000000000000602082015250565b7f455448207472616e73666572206661696c65642e000000000000000000000000600082015250565b7f43616e6e6f7420616363657074204e46542066726f6d2074686973206f776e6560008201527f722e000000000000000000000000000000000000000000000000000000000000602082015250565b7f50617263656c2063616e27742072656365697665206173736574732e00000000600082015250565b50565b7f496e636f7272656374207365637265742e000000000000000000000000000000600082015250565b7f4f6e6c79207468652070617263656c2073656e6465722063616e2063616c6c2060008201527f746869732e000000000000000000000000000000000000000000000000000000602082015250565b600381106122b1576122b0611fd6565b5b50565b6122bd81611e7b565b81146122c857600080fd5b50565b6122d481611e8d565b81146122df57600080fd5b50565b6122eb81611e99565b81146122f657600080fd5b50565b61230281611f02565b811461230d57600080fd5b5056fea2646970667358221220909de6d019d04cd8cca0210465b7d101f5c7363c6cb100ea8c5efcdd61d9d40864736f6c63430008040033",
    "linkReferences": {},
    "deployedLinkReferences": {}
}