{
    "_format": "hh-sol-artifact-1",
    "contractName": "TestNFT",
    "sourceName": "contracts/test/TestNFT.sol",
    "abi": [
        {
            "inputs": [
                {
                    "internalType": "string",
                    "name": "name",
                    "type": "string"
                },
                {
                    "internalType": "string",
                    "name": "symbol",
                    "type": "string"
                }
            ],
            "stateMutability": "nonpayable",
            "type": "constructor"
        },
        {
            "anonymous": false,
            "inputs": [
                {
                    "indexed": true,
                    "internalType": "address",
                    "name": "owner",
                    "type": "address"
                },
                {
                    "indexed": true,
                    "internalType": "address",
                    "name": "approved",
                    "type": "address"
                },
                {
                    "indexed": true,
                    "internalType": "uint256",
                    "name": "tokenId",
                    "type": "uint256"
                }
            ],
            "name": "Approval",
            "type": "event"
        },
        {
            "anonymous": false,
            "inputs": [
                {
                    "indexed": true,
                    "internalType": "address",
                    "name": "owner",
                    "type": "address"
                },
                {
                    "indexed": true,
                    "internalType": "address",
                    "name": "operator",
                    "type": "address"
                },
                {
                    "indexed": false,
                    "internalType": "bool",
                    "name": "approved",
                    "type": "bool"
                }
            ],
            "name": "ApprovalForAll",
            "type": "event"
        },
        {
            "anonymous": false,
            "inputs": [
                {
                    "indexed": true,
                    "internalType": "address",
                    "name": "from",
                    "type": "address"
                },
                {
                    "indexed": true,
                    "internalType": "address",
                    "name": "to",
                    "type": "address"
                },
                {
                    "indexed": true,
                    "internalType": "uint256",
                    "name": "tokenId",
                    "type": "uint256"
                }
            ],
            "name": "Transfer",
            "type": "event"
        },
        {
            "inputs": [
                {
                    "internalType": "address",
                    "name": "to",
                    "type": "address"
                },
                {
                    "internalType": "uint256",
                    "name": "tokenId",
                    "type": "uint256"
                }
            ],
            "name": "approve",
            "outputs": [],
            "stateMutability": "nonpayable",
            "type": "function"
        },
        {
            "inputs": [
                {
                    "internalType": "address",
                    "name": "owner",
                    "type": "address"
                }
            ],
            "name": "balanceOf",
            "outputs": [
                {
                    "internalType": "uint256",
                    "name": "",
                    "type": "uint256"
                }
            ],
            "stateMutability": "view",
            "type": "function"
        },
        {
            "inputs": [
                {
                    "internalType": "uint256",
                    "name": "tokenId",
                    "type": "uint256"
                }
            ],
            "name": "getApproved",
            "outputs": [
                {
                    "internalType": "address",
                    "name": "",
                    "type": "address"
                }
            ],
            "stateMutability": "view",
            "type": "function"
        },
        {
            "inputs": [
                {
                    "internalType": "address",
                    "name": "owner",
                    "type": "address"
                },
                {
                    "internalType": "address",
                    "name": "operator",
                    "type": "address"
                }
            ],
            "name": "isApprovedForAll",
            "outputs": [
                {
                    "internalType": "bool",
                    "name": "",
                    "type": "bool"
                }
            ],
            "stateMutability": "view",
            "type": "function"
        },
        {
            "inputs": [
                {
                    "internalType": "address",
                    "name": "recipient",
                    "type": "address"
                }
            ],
            "name": "mint",
            "outputs": [
                {
                    "internalType": "uint256",
                    "name": "",
                    "type": "uint256"
                }
            ],
            "stateMutability": "nonpayable",
            "type": "function"
        },
        {
            "inputs": [],
            "name": "name",
            "outputs": [
                {
                    "internalType": "string",
                    "name": "",
                    "type": "string"
                }
            ],
            "stateMutability": "view",
            "type": "function"
        },
        {
            "inputs": [
                {
                    "internalType": "uint256",
                    "name": "tokenId",
                    "type": "uint256"
                }
            ],
            "name": "ownerOf",
            "outputs": [
                {
                    "internalType": "address",
                    "name": "",
                    "type": "address"
                }
            ],
            "stateMutability": "view",
            "type": "function"
        },
        {
            "inputs": [
                {
                    "internalType": "address",
                    "name": "from",
                    "type": "address"
                },
                {
                    "internalType": "address",
                    "name": "to",
                    "type": "address"
                },
                {
                    "internalType": "uint256",
                    "name": "tokenId",
                    "type": "uint256"
                }
            ],
            "name": "safeTransferFrom",
            "outputs": [],
            "stateMutability": "nonpayable",
            "type": "function"
        },
        {
            "inputs": [
                {
                    "internalType": "address",
                    "name": "from",
                    "type": "address"
                },
                {
                    "internalType": "address",
                    "name": "to",
                    "type": "address"
                },
                {
                    "internalType": "uint256",
                    "name": "tokenId",
                    "type": "uint256"
                },
                {
                    "internalType": "bytes",
                    "name": "_data",
                    "type": "bytes"
                }
            ],
            "name": "safeTransferFrom",
            "outputs": [],
            "stateMutability": "nonpayable",
            "type": "function"
        },
        {
            "inputs": [
                {
                    "internalType": "address",
                    "name": "operator",
                    "type": "address"
                },
                {
                    "internalType": "bool",
                    "name": "approved",
                    "type": "bool"
                }
            ],
            "name": "setApprovalForAll",
            "outputs": [],
            "stateMutability": "nonpayable",
            "type": "function"
        },
        {
            "inputs": [
                {
                    "internalType": "bytes4",
                    "name": "interfaceId",
                    "type": "bytes4"
                }
            ],
            "name": "supportsInterface",
            "outputs": [
                {
                    "internalType": "bool",
                    "name": "",
                    "type": "bool"
                }
            ],
            "stateMutability": "view",
            "type": "function"
        },
        {
            "inputs": [],
            "name": "symbol",
            "outputs": [
                {
                    "internalType": "string",
                    "name": "",
                    "type": "string"
                }
            ],
            "stateMutability": "view",
            "type": "function"
        },
        {
            "inputs": [
                {
                    "internalType": "uint256",
                    "name": "tokenId",
                    "type": "uint256"
                }
            ],
            "name": "tokenURI",
            "outputs": [
                {
                    "internalType": "string",
                    "name": "",
                    "type": "string"
                }
            ],
            "stateMutability": "view",
            "type": "function"
        },
        {
            "inputs": [
                {
                    "internalType": "address",
                    "name": "from",
                    "type": "address"
                },
                {
                    "internalType": "address",
                    "name": "to",
                    "type": "address"
                },
                {
                    "internalType": "uint256",
                    "name": "tokenId",
                    "type": "uint256"
                }
            ],
            "name": "transferFrom",
            "outputs": [],
            "stateMutability": "nonpayable",
            "type": "function"
        }
    ],
    "bytecode": "0x60806040523480156200001157600080fd5b5060405162002a7338038062002a73833981810160405281019062000037919062000197565b818181600090805190602001906200005192919062000075565b5080600190805190602001906200006a92919062000075565b50505050506200037a565b82805462000083906200029f565b90600052602060002090601f016020900481019282620000a75760008555620000f3565b82601f10620000c257805160ff1916838001178555620000f3565b82800160010185558215620000f3579182015b82811115620000f2578251825591602001919060010190620000d5565b5b50905062000102919062000106565b5090565b5b808211156200012157600081600090555060010162000107565b5090565b60006200013c620001368462000233565b6200020a565b9050828152602081018484840111156200015557600080fd5b6200016284828562000269565b509392505050565b600082601f8301126200017c57600080fd5b81516200018e84826020860162000125565b91505092915050565b60008060408385031215620001ab57600080fd5b600083015167ffffffffffffffff811115620001c657600080fd5b620001d4858286016200016a565b925050602083015167ffffffffffffffff811115620001f257600080fd5b62000200858286016200016a565b9150509250929050565b60006200021662000229565b9050620002248282620002d5565b919050565b6000604051905090565b600067ffffffffffffffff8211156200025157620002506200033a565b5b6200025c8262000369565b9050602081019050919050565b60005b83811015620002895780820151818401526020810190506200026c565b8381111562000299576000848401525b50505050565b60006002820490506001821680620002b857607f821691505b60208210811415620002cf57620002ce6200030b565b5b50919050565b620002e08262000369565b810181811067ffffffffffffffff821117156200030257620003016200033a565b5b80604052505050565b7f4e487b7100000000000000000000000000000000000000000000000000000000600052602260045260246000fd5b7f4e487b7100000000000000000000000000000000000000000000000000000000600052604160045260246000fd5b6000601f19601f8301169050919050565b6126e9806200038a6000396000f3fe608060405234801561001057600080fd5b50600436106100ea5760003560e01c80636a6278421161008c578063a22cb46511610066578063a22cb4651461026f578063b88d4fde1461028b578063c87b56dd146102a7578063e985e9c5146102d7576100ea565b80636a627842146101f157806370a082311461022157806395d89b4114610251576100ea565b8063095ea7b3116100c8578063095ea7b31461016d57806323b872dd1461018957806342842e0e146101a55780636352211e146101c1576100ea565b806301ffc9a7146100ef57806306fdde031461011f578063081812fc1461013d575b600080fd5b610109600480360381019061010491906118eb565b610307565b6040516101169190611cab565b60405180910390f35b6101276103e9565b6040516101349190611cc6565b60405180910390f35b6101576004803603810190610152919061193d565b61047b565b6040516101649190611c44565b60405180910390f35b610187600480360381019061018291906118af565b610500565b005b6101a3600480360381019061019e91906117a9565b610618565b005b6101bf60048036038101906101ba91906117a9565b610678565b005b6101db60048036038101906101d6919061193d565b610698565b6040516101e89190611c44565b60405180910390f35b61020b60048036038101906102069190611744565b61074a565b6040516102189190611ea8565b60405180910390f35b61023b60048036038101906102369190611744565b610777565b6040516102489190611ea8565b60405180910390f35b61025961082f565b6040516102669190611cc6565b60405180910390f35b61028960048036038101906102849190611873565b6108c1565b005b6102a560048036038101906102a091906117f8565b6108d7565b005b6102c160048036038101906102bc919061193d565b610939565b6040516102ce9190611cc6565b60405180910390f35b6102f160048036038101906102ec919061176d565b6109e0565b6040516102fe9190611cab565b60405180910390f35b60007f80ac58cd000000000000000000000000000000000000000000000000000000007bffffffffffffffffffffffffffffffffffffffffffffffffffffffff1916827bffffffffffffffffffffffffffffffffffffffffffffffffffffffff191614806103d257507f5b5e139f000000000000000000000000000000000000000000000000000000007bffffffffffffffffffffffffffffffffffffffffffffffffffffffff1916827bffffffffffffffffffffffffffffffffffffffffffffffffffffffff1916145b806103e257506103e182610a74565b5b9050919050565b6060600080546103f8906120cd565b80601f0160208091040260200160405190810160405280929190818152602001828054610424906120cd565b80156104715780601f1061044657610100808354040283529160200191610471565b820191906000526020600020905b81548152906001019060200180831161045457829003601f168201915b5050505050905090565b600061048682610ade565b6104c5576040517f08c379a00000000000000000000000000000000000000000000000000000000081526004016104bc90611e08565b60405180910390fd5b6004600083815260200190815260200160002060009054906101000a900473ffffffffffffffffffffffffffffffffffffffff169050919050565b600061050b82610698565b90508073ffffffffffffffffffffffffffffffffffffffff168373ffffffffffffffffffffffffffffffffffffffff16141561057c576040517f08c379a000000000000000000000000000000000000000000000000000000000815260040161057390611e68565b60405180910390fd5b8073ffffffffffffffffffffffffffffffffffffffff1661059b610b4a565b73ffffffffffffffffffffffffffffffffffffffff1614806105ca57506105c9816105c4610b4a565b6109e0565b5b610609576040517f08c379a000000000000000000000000000000000000000000000000000000000815260040161060090611d88565b60405180910390fd5b6106138383610b52565b505050565b610629610623610b4a565b82610c0b565b610668576040517f08c379a000000000000000000000000000000000000000000000000000000000815260040161065f90611e88565b60405180910390fd5b610673838383610ce9565b505050565b610693838383604051806020016040528060008152506108d7565b505050565b6000806002600084815260200190815260200160002060009054906101000a900473ffffffffffffffffffffffffffffffffffffffff169050600073ffffffffffffffffffffffffffffffffffffffff168173ffffffffffffffffffffffffffffffffffffffff161415610741576040517f08c379a000000000000000000000000000000000000000000000000000000000815260040161073890611dc8565b60405180910390fd5b80915050919050565b60006107566006610f45565b60006107626006610f5b565b905061076e8382610f69565b80915050919050565b60008073ffffffffffffffffffffffffffffffffffffffff168273ffffffffffffffffffffffffffffffffffffffff1614156107e8576040517f08c379a00000000000000000000000000000000000000000000000000000000081526004016107df90611da8565b60405180910390fd5b600360008373ffffffffffffffffffffffffffffffffffffffff1673ffffffffffffffffffffffffffffffffffffffff168152602001908152602001600020549050919050565b60606001805461083e906120cd565b80601f016020809104026020016040519081016040528092919081815260200182805461086a906120cd565b80156108b75780601f1061088c576101008083540402835291602001916108b7565b820191906000526020600020905b81548152906001019060200180831161089a57829003601f168201915b5050505050905090565b6108d36108cc610b4a565b8383611137565b5050565b6108e86108e2610b4a565b83610c0b565b610927576040517f08c379a000000000000000000000000000000000000000000000000000000000815260040161091e90611e88565b60405180910390fd5b610933848484846112a4565b50505050565b606061094482610ade565b610983576040517f08c379a000000000000000000000000000000000000000000000000000000000815260040161097a90611e48565b60405180910390fd5b600061098d611300565b905060008151116109ad57604051806020016040528060008152506109d8565b806109b784611317565b6040516020016109c8929190611c20565b6040516020818303038152906040525b915050919050565b6000600560008473ffffffffffffffffffffffffffffffffffffffff1673ffffffffffffffffffffffffffffffffffffffff16815260200190815260200160002060008373ffffffffffffffffffffffffffffffffffffffff1673ffffffffffffffffffffffffffffffffffffffff16815260200190815260200160002060009054906101000a900460ff16905092915050565b60007f01ffc9a7000000000000000000000000000000000000000000000000000000007bffffffffffffffffffffffffffffffffffffffffffffffffffffffff1916827bffffffffffffffffffffffffffffffffffffffffffffffffffffffff1916149050919050565b60008073ffffffffffffffffffffffffffffffffffffffff166002600084815260200190815260200160002060009054906101000a900473ffffffffffffffffffffffffffffffffffffffff1673ffffffffffffffffffffffffffffffffffffffff1614159050919050565b600033905090565b816004600083815260200190815260200160002060006101000a81548173ffffffffffffffffffffffffffffffffffffffff021916908373ffffffffffffffffffffffffffffffffffffffff160217905550808273ffffffffffffffffffffffffffffffffffffffff16610bc583610698565b73ffffffffffffffffffffffffffffffffffffffff167f8c5be1e5ebec7d5bd14f71427d1e84f3dd0314c0f7b2291e5b200ac8c7c3b92560405160405180910390a45050565b6000610c1682610ade565b610c55576040517f08c379a0000000000000000000000000000000000000000000000000000000008152600401610c4c90611d68565b60405180910390fd5b6000610c6083610698565b90508073ffffffffffffffffffffffffffffffffffffffff168473ffffffffffffffffffffffffffffffffffffffff161480610ccf57508373ffffffffffffffffffffffffffffffffffffffff16610cb78461047b565b73ffffffffffffffffffffffffffffffffffffffff16145b80610ce05750610cdf81856109e0565b5b91505092915050565b8273ffffffffffffffffffffffffffffffffffffffff16610d0982610698565b73ffffffffffffffffffffffffffffffffffffffff1614610d5f576040517f08c379a0000000000000000000000000000000000000000000000000000000008152600401610d5690611e28565b60405180910390fd5b600073ffffffffffffffffffffffffffffffffffffffff168273ffffffffffffffffffffffffffffffffffffffff161415610dcf576040517f08c379a0000000000000000000000000000000000000000000000000000000008152600401610dc690611d28565b60405180910390fd5b610dda8383836114c4565b610de5600082610b52565b6001600360008573ffffffffffffffffffffffffffffffffffffffff1673ffffffffffffffffffffffffffffffffffffffff1681526020019081526020016000206000828254610e359190611fe3565b925050819055506001600360008473ffffffffffffffffffffffffffffffffffffffff1673ffffffffffffffffffffffffffffffffffffffff1681526020019081526020016000206000828254610e8c9190611f5c565b92505081905550816002600083815260200190815260200160002060006101000a81548173ffffffffffffffffffffffffffffffffffffffff021916908373ffffffffffffffffffffffffffffffffffffffff160217905550808273ffffffffffffffffffffffffffffffffffffffff168473ffffffffffffffffffffffffffffffffffffffff167fddf252ad1be2c89b69c2b068fc378daa952ba7f163c4a11628f55a4df523b3ef60405160405180910390a4505050565b6001816000016000828254019250508190555050565b600081600001549050919050565b600073ffffffffffffffffffffffffffffffffffffffff168273ffffffffffffffffffffffffffffffffffffffff161415610fd9576040517f08c379a0000000000000000000000000000000000000000000000000000000008152600401610fd090611de8565b60405180910390fd5b610fe281610ade565b15611022576040517f08c379a000000000000000000000000000000000000000000000000000000000815260040161101990611d08565b60405180910390fd5b61102e600083836114c4565b6001600360008473ffffffffffffffffffffffffffffffffffffffff1673ffffffffffffffffffffffffffffffffffffffff168152602001908152602001600020600082825461107e9190611f5c565b92505081905550816002600083815260200190815260200160002060006101000a81548173ffffffffffffffffffffffffffffffffffffffff021916908373ffffffffffffffffffffffffffffffffffffffff160217905550808273ffffffffffffffffffffffffffffffffffffffff16600073ffffffffffffffffffffffffffffffffffffffff167fddf252ad1be2c89b69c2b068fc378daa952ba7f163c4a11628f55a4df523b3ef60405160405180910390a45050565b8173ffffffffffffffffffffffffffffffffffffffff168373ffffffffffffffffffffffffffffffffffffffff1614156111a6576040517f08c379a000000000000000000000000000000000000000000000000000000000815260040161119d90611d48565b60405180910390fd5b80600560008573ffffffffffffffffffffffffffffffffffffffff1673ffffffffffffffffffffffffffffffffffffffff16815260200190815260200160002060008473ffffffffffffffffffffffffffffffffffffffff1673ffffffffffffffffffffffffffffffffffffffff16815260200190815260200160002060006101000a81548160ff0219169083151502179055508173ffffffffffffffffffffffffffffffffffffffff168373ffffffffffffffffffffffffffffffffffffffff167f17307eab39ab6107e8899845ad3d59bd9653f200f220920489ca2b5937696c31836040516112979190611cab565b60405180910390a3505050565b6112af848484610ce9565b6112bb848484846114c9565b6112fa576040517f08c379a00000000000000000000000000000000000000000000000000000000081526004016112f190611ce8565b60405180910390fd5b50505050565b606060405180602001604052806000815250905090565b6060600082141561135f576040518060400160405280600181526020017f300000000000000000000000000000000000000000000000000000000000000081525090506114bf565b600082905060005b6000821461139157808061137a90612130565b915050600a8261138a9190611fb2565b9150611367565b60008167ffffffffffffffff8111156113d3577f4e487b7100000000000000000000000000000000000000000000000000000000600052604160045260246000fd5b6040519080825280601f01601f1916602001820160405280156114055781602001600182028036833780820191505090505b5090505b600085146114b85760018261141e9190611fe3565b9150600a8561142d9190612179565b60306114399190611f5c565b60f81b818381518110611475577f4e487b7100000000000000000000000000000000000000000000000000000000600052603260045260246000fd5b60200101907effffffffffffffffffffffffffffffffffffffffffffffffffffffffffffff1916908160001a905350600a856114b19190611fb2565b9450611409565b8093505050505b919050565b505050565b60006114ea8473ffffffffffffffffffffffffffffffffffffffff16611660565b15611653578373ffffffffffffffffffffffffffffffffffffffff1663150b7a02611513610b4a565b8786866040518563ffffffff1660e01b81526004016115359493929190611c5f565b602060405180830381600087803b15801561154f57600080fd5b505af192505050801561158057506040513d601f19601f8201168201806040525081019061157d9190611914565b60015b611603573d80600081146115b0576040519150601f19603f3d011682016040523d82523d6000602084013e6115b5565b606091505b506000815114156115fb576040517f08c379a00000000000000000000000000000000000000000000000000000000081526004016115f290611ce8565b60405180910390fd5b805181602001fd5b63150b7a0260e01b7bffffffffffffffffffffffffffffffffffffffffffffffffffffffff1916817bffffffffffffffffffffffffffffffffffffffffffffffffffffffff191614915050611658565b600190505b949350505050565b600080823b905060008111915050919050565b600061168661168184611ee8565b611ec3565b90508281526020810184848401111561169e57600080fd5b6116a984828561208b565b509392505050565b6000813590506116c081612657565b92915050565b6000813590506116d58161266e565b92915050565b6000813590506116ea81612685565b92915050565b6000815190506116ff81612685565b92915050565b600082601f83011261171657600080fd5b8135611726848260208601611673565b91505092915050565b60008135905061173e8161269c565b92915050565b60006020828403121561175657600080fd5b6000611764848285016116b1565b91505092915050565b6000806040838503121561178057600080fd5b600061178e858286016116b1565b925050602061179f858286016116b1565b9150509250929050565b6000806000606084860312156117be57600080fd5b60006117cc868287016116b1565b93505060206117dd868287016116b1565b92505060406117ee8682870161172f565b9150509250925092565b6000806000806080858703121561180e57600080fd5b600061181c878288016116b1565b945050602061182d878288016116b1565b935050604061183e8782880161172f565b925050606085013567ffffffffffffffff81111561185b57600080fd5b61186787828801611705565b91505092959194509250565b6000806040838503121561188657600080fd5b6000611894858286016116b1565b92505060206118a5858286016116c6565b9150509250929050565b600080604083850312156118c257600080fd5b60006118d0858286016116b1565b92505060206118e18582860161172f565b9150509250929050565b6000602082840312156118fd57600080fd5b600061190b848285016116db565b91505092915050565b60006020828403121561192657600080fd5b6000611934848285016116f0565b91505092915050565b60006020828403121561194f57600080fd5b600061195d8482850161172f565b91505092915050565b61196f81612017565b82525050565b61197e81612029565b82525050565b600061198f82611f19565b6119998185611f2f565b93506119a981856020860161209a565b6119b281612266565b840191505092915050565b60006119c882611f24565b6119d28185611f40565b93506119e281856020860161209a565b6119eb81612266565b840191505092915050565b6000611a0182611f24565b611a0b8185611f51565b9350611a1b81856020860161209a565b80840191505092915050565b6000611a34603283611f40565b9150611a3f82612277565b604082019050919050565b6000611a57601c83611f40565b9150611a62826122c6565b602082019050919050565b6000611a7a602483611f40565b9150611a85826122ef565b604082019050919050565b6000611a9d601983611f40565b9150611aa88261233e565b602082019050919050565b6000611ac0602c83611f40565b9150611acb82612367565b604082019050919050565b6000611ae3603883611f40565b9150611aee826123b6565b604082019050919050565b6000611b06602a83611f40565b9150611b1182612405565b604082019050919050565b6000611b29602983611f40565b9150611b3482612454565b604082019050919050565b6000611b4c602083611f40565b9150611b57826124a3565b602082019050919050565b6000611b6f602c83611f40565b9150611b7a826124cc565b604082019050919050565b6000611b92602983611f40565b9150611b9d8261251b565b604082019050919050565b6000611bb5602f83611f40565b9150611bc08261256a565b604082019050919050565b6000611bd8602183611f40565b9150611be3826125b9565b604082019050919050565b6000611bfb603183611f40565b9150611c0682612608565b604082019050919050565b611c1a81612081565b82525050565b6000611c2c82856119f6565b9150611c3882846119f6565b91508190509392505050565b6000602082019050611c596000830184611966565b92915050565b6000608082019050611c746000830187611966565b611c816020830186611966565b611c8e6040830185611c11565b8181036060830152611ca08184611984565b905095945050505050565b6000602082019050611cc06000830184611975565b92915050565b60006020820190508181036000830152611ce081846119bd565b905092915050565b60006020820190508181036000830152611d0181611a27565b9050919050565b60006020820190508181036000830152611d2181611a4a565b9050919050565b60006020820190508181036000830152611d4181611a6d565b9050919050565b60006020820190508181036000830152611d6181611a90565b9050919050565b60006020820190508181036000830152611d8181611ab3565b9050919050565b60006020820190508181036000830152611da181611ad6565b9050919050565b60006020820190508181036000830152611dc181611af9565b9050919050565b60006020820190508181036000830152611de181611b1c565b9050919050565b60006020820190508181036000830152611e0181611b3f565b9050919050565b60006020820190508181036000830152611e2181611b62565b9050919050565b60006020820190508181036000830152611e4181611b85565b9050919050565b60006020820190508181036000830152611e6181611ba8565b9050919050565b60006020820190508181036000830152611e8181611bcb565b9050919050565b60006020820190508181036000830152611ea181611bee565b9050919050565b6000602082019050611ebd6000830184611c11565b92915050565b6000611ecd611ede565b9050611ed982826120ff565b919050565b6000604051905090565b600067ffffffffffffffff821115611f0357611f02612237565b5b611f0c82612266565b9050602081019050919050565b600081519050919050565b600081519050919050565b600082825260208201905092915050565b600082825260208201905092915050565b600081905092915050565b6000611f6782612081565b9150611f7283612081565b9250827fffffffffffffffffffffffffffffffffffffffffffffffffffffffffffffffff03821115611fa757611fa66121aa565b5b828201905092915050565b6000611fbd82612081565b9150611fc883612081565b925082611fd857611fd76121d9565b5b828204905092915050565b6000611fee82612081565b9150611ff983612081565b92508282101561200c5761200b6121aa565b5b828203905092915050565b600061202282612061565b9050919050565b60008115159050919050565b60007fffffffff0000000000000000000000000000000000000000000000000000000082169050919050565b600073ffffffffffffffffffffffffffffffffffffffff82169050919050565b6000819050919050565b82818337600083830152505050565b60005b838110156120b857808201518184015260208101905061209d565b838111156120c7576000848401525b50505050565b600060028204905060018216806120e557607f821691505b602082108114156120f9576120f8612208565b5b50919050565b61210882612266565b810181811067ffffffffffffffff8211171561212757612126612237565b5b80604052505050565b600061213b82612081565b91507fffffffffffffffffffffffffffffffffffffffffffffffffffffffffffffffff82141561216e5761216d6121aa565b5b600182019050919050565b600061218482612081565b915061218f83612081565b92508261219f5761219e6121d9565b5b828206905092915050565b7f4e487b7100000000000000000000000000000000000000000000000000000000600052601160045260246000fd5b7f4e487b7100000000000000000000000000000000000000000000000000000000600052601260045260246000fd5b7f4e487b7100000000000000000000000000000000000000000000000000000000600052602260045260246000fd5b7f4e487b7100000000000000000000000000000000000000000000000000000000600052604160045260246000fd5b6000601f19601f8301169050919050565b7f4552433732313a207472616e7366657220746f206e6f6e20455243373231526560008201527f63656976657220696d706c656d656e7465720000000000000000000000000000602082015250565b7f4552433732313a20746f6b656e20616c7265616479206d696e74656400000000600082015250565b7f4552433732313a207472616e7366657220746f20746865207a65726f2061646460008201527f7265737300000000000000000000000000000000000000000000000000000000602082015250565b7f4552433732313a20617070726f766520746f2063616c6c657200000000000000600082015250565b7f4552433732313a206f70657261746f7220717565727920666f72206e6f6e657860008201527f697374656e7420746f6b656e0000000000000000000000000000000000000000602082015250565b7f4552433732313a20617070726f76652063616c6c6572206973206e6f74206f7760008201527f6e6572206e6f7220617070726f76656420666f7220616c6c0000000000000000602082015250565b7f4552433732313a2062616c616e636520717565727920666f7220746865207a6560008201527f726f206164647265737300000000000000000000000000000000000000000000602082015250565b7f4552433732313a206f776e657220717565727920666f72206e6f6e657869737460008201527f656e7420746f6b656e0000000000000000000000000000000000000000000000602082015250565b7f4552433732313a206d696e7420746f20746865207a65726f2061646472657373600082015250565b7f4552433732313a20617070726f76656420717565727920666f72206e6f6e657860008201527f697374656e7420746f6b656e0000000000000000000000000000000000000000602082015250565b7f4552433732313a207472616e73666572206f6620746f6b656e2074686174206960008201527f73206e6f74206f776e0000000000000000000000000000000000000000000000602082015250565b7f4552433732314d657461646174613a2055524920717565727920666f72206e6f60008201527f6e6578697374656e7420746f6b656e0000000000000000000000000000000000602082015250565b7f4552433732313a20617070726f76616c20746f2063757272656e74206f776e6560008201527f7200000000000000000000000000000000000000000000000000000000000000602082015250565b7f4552433732313a207472616e736665722063616c6c6572206973206e6f74206f60008201527f776e6572206e6f7220617070726f766564000000000000000000000000000000602082015250565b61266081612017565b811461266b57600080fd5b50565b61267781612029565b811461268257600080fd5b50565b61268e81612035565b811461269957600080fd5b50565b6126a581612081565b81146126b057600080fd5b5056fea2646970667358221220b76649ef69ba81b4267eb9441d6ee04c09034ea02a2397cf6c505d8bbebf143764736f6c63430008040033",
    "linkReferences": {},
    "deployedLinkReferences": {}
}